:020000040800F2
:1000000000800020692F0008092D0008112D00082C
:10001000192D0008212D0008292D000800000000DE
:10002000000000000000000000000000312D00086A
:100030003D2D000800000000492D0008552D000846
:10004000B12F0008B12F0008B12F0008B12F000810
:10005000B12F0008B12F0008B12F0008B12F000800
:10006000B12F0008B12F0008B12F0008B12F0008F0
:10007000B12F0008B12F0008B12F0008B12F0008E0
:10008000B12F0008B12F0008612D0008B12F000822
:10009000B12F0008B12F0008B12F0008B12F0008C0
:1000A00000000000B12F0008B12F0008B12F000898
:1000B000752D0008B12F0008B12F0008892D000808
:1000C0009D2D0008B12F0008B12F0008B12F0008A6
:1000D000B12F0008B12D0008C52D0008B12F000870
:1000E000B12F0008B12F0008B12F0008B12F000870
:1000F000B12F000800000000000000000000000018
:1001000000000000000000000000000000000000EF
:1001100000000000000000000000000000000000DF
:1001200000000000000000000000000000000000CF
:0C01300000000000000000005FF808F173
:1001400010B5054C237833B9044B13B10448AFF311
:1001500000800123237010BD500300200000000028
:1001600050CA000808B5034B1BB103490348AFF35D
:10017000008008BD000000005403002050CA0008A1
:10018000034613F8012B002AFBD1181A01387047D7
:1001900081F0004102E000BF83F0004330B54FEA38
:1001A00041044FEA430594EA050F08BF90EA020FA5
:1001B0001FBF54EA000C55EA020C7FEA645C7FEA38
:1001C000655C00F0E2804FEA5454D4EB5555B8BF5B
:1001D0006D420CDD2C4480EA020281EA030382EACC
:1001E000000083EA010180EA020281EA0303362D5E
:1001F00088BF30BD11F0004F4FEA01314FF4801C31
:100200004CEA113102D0404261EB410113F0004F42
:100210004FEA03334CEA133302D0524263EB4303F9
:1002200094EA050F00F0A780A4F10104D5F1200E97
:100230000DDB02FA0EFC22FA05F2801841F10001F2
:1002400003FA0EF2801843FA05F359410EE0A5F1C6
:1002500020050EF1200E012A03FA0EFC28BF4CF0F7
:10026000020C43FA05F3C01851EBE37101F00045AD
:1002700007D54FF0000EDCF1000C7EEB00006EEBBA
:100280000101B1F5801F1BD3B1F5001F0CD3490844
:100290005FEA30004FEA3C0C04F101044FEA44529B
:1002A00012F5800F80F09A80BCF1004F08BF5FEA22
:1002B000500C50F1000041EB045141EA050130BD02
:1002C0005FEA4C0C404141EB0101013C28BFB1F514
:1002D000801FE9D291F0000F04BF01460020B1FA5F
:1002E00081F308BF2033A3F10B03B3F120020CDA32
:1002F0000C3208DD02F1140CC2F10C0201FA0CF010
:1003000021FA02F10CE002F11402D8BFC2F1200C74
:1003100001FA02F120FA0CFCDCBF41EA0C0190402A
:10032000E41AA2BF01EB0451294330BD6FEA040473
:100330001F3C1CDA0C340EDC04F11404C4F120025E
:1003400020FA04F001FA02F340EA030021FA04F370
:1003500045EA030130BDC4F10C04C4F1200220FAC7
:1003600002F001FA04F340EA0300294630BD21FA05
:1003700004F0294630BD94F0000F83F4801306BFCB
:1003800081F480110134013D4EE77FEA645C18BFBF
:100390007FEA655C29D094EA050F08BF90EA020F56
:1003A00005D054EA000C04BF1946104630BD91EA4E
:1003B000030F1EBF0021002030BD5FEA545C05D151
:1003C0004000494128BF41F0004130BD14F5800490
:1003D0003CBF01F5801130BD01F0004545F0FE4104
:1003E00041F470014FF0000030BD7FEA645C1ABF39
:1003F000194610467FEA655C1CBF0B46024650EA70
:10040000013406BF52EA033591EA030F41F400219B
:1004100030BD00BF90F0000F04BF0021704730B521
:100420004FF4806404F132044FF000054FF00001F6
:1004300050E700BF90F0000F04BF0021704730B5B7
:100440004FF4806404F1320410F0004548BF40428C
:100450004FF000013EE700BF42004FEAE2014FEAE1
:1004600031014FEA02701FBF12F07F4393F07F4FBC
:1004700081F06051704732F07F4208BF704793F0BF
:100480007F4F04BF41F40021704730B54FF46074D2
:1004900001F0004521F000411CE700BF50EA0102D5
:1004A00008BF704730B54FF000050AE050EA01027E
:1004B00008BF704730B511F0004502D5404261EBEE
:1004C00041014FF4806404F132045FEA915C3FF42F
:1004D000D8AE4FF003025FEADC0C18BF03325FEACC
:1004E000DC0C18BF033202EBDC02C2F1200300FA7D
:1004F00003FC20FA02F001FA03FE40EA0E0021FAA2
:1005000002F11444BDE600BF70B54FF0FF0C4CF48F
:10051000E06C1CEA11541DBF1CEA135594EA0C0F41
:1005200095EA0C0F00F0DEF82C4481EA030621EA7C
:100530004C5123EA4C5350EA013518BF52EA0335B7
:1005400041F4801143F4801338D0A0FB02CE4FF069
:100550000005E1FB02E506F00042E0FB03E54FF099
:100560000006E1FB03569CF0000F18BF4EF0010E91
:10057000A4F1FF04B6F5007F64F5407404D25FEA8D
:100580004E0E6D4146EB060642EAC62141EA555140
:100590004FEAC52040EA5E504FEACE2EB4F1FD0C82
:1005A00088BFBCF5E06F1ED8BEF1004F08BF5FEA00
:1005B000500E50F1000041EB045170BD06F00046B2
:1005C00046EA010140EA020081EA0301B4EB5C045F
:1005D000C2BFD4EB0C0541EA045170BD41F4801157
:1005E0004FF0000E013C00F3AB8014F1360FDEBF7C
:1005F000002001F0004170BDC4F10004203C35DA58
:100600000C341BDC04F11404C4F1200500FA05F3DA
:1006100020FA04F001FA05F240EA020001F000427B
:1006200021F0004110EBD37021FA04F642EB0601F1
:100630005EEA430E08BF20EAD37070BDC4F10C041B
:10064000C4F1200500FA04F320FA05F001FA04F2DF
:1006500040EA020001F0004110EBD37041F10001CB
:100660005EEA430E08BF20EAD37070BDC4F12005D6
:1006700000FA05F24EEA020E20FA04F301FA05F23E
:1006800043EA020321FA04F001F0004121FA04F2E6
:1006900020EA020000EBD3705EEA430E08BF20EAB6
:1006A000D37070BD94F0000F0FD101F000464000F0
:1006B00041EB010111F4801F08BF013CF7D041EA72
:1006C000060195F0000F18BF704703F00046520076
:1006D00043EB030313F4801F08BF013DF7D043EA47
:1006E0000603704794EA0C0F0CEA135518BF95EAFD
:1006F0000C0F0CD050EA410618BF52EA4306D1D184
:1007000081EA030101F000414FF0000070BD50EAA2
:10071000410606BF1046194652EA430619D094EA2C
:100720000C0F02D150EA013613D195EA0C0F05D116
:1007300052EA03361CBF104619460AD181EA03016A
:1007400001F0004141F0FE4141F470014FF0000022
:1007500070BD41F0FE4141F4780170BD70B54FF0BD
:10076000FF0C4CF4E06C1CEA11541DBF1CEA13553D
:1007700094EA0C0F95EA0C0F00F0A7F8A4EB05041F
:1007800081EA030E52EA03354FEA013100F0888016
:100790004FEA03334FF0805545EA131343EA1263DF
:1007A0004FEA022245EA111545EA10654FEA002694
:1007B0000EF000419D4208BF964244F1FD0404F54D
:1007C000407402D25B084FEA3202B61A65EB0305A9
:1007D0005B084FEA32024FF480104FF4002CB6EB66
:1007E000020E75EB030E22BFB61A754640EA0C00E6
:1007F0005B084FEA3202B6EB020E75EB030E22BF26
:10080000B61A754640EA5C005B084FEA3202B6EB66
:10081000020E75EB030E22BFB61A754640EA9C0025
:100820005B084FEA3202B6EB020E75EB030E22BFF5
:10083000B61A754640EADC0055EA060E18D04FEAB3
:10084000051545EA16754FEA06164FEAC30343EA53
:1008500052734FEAC2025FEA1C1CC0D111F4801F20
:100860000BD141EA00014FF000004FF0004CB6E719
:1008700011F4801F04BF01430020B4F1FD0C88BFB8
:10088000BCF5E06F3FF6AFAEB5EB030C04BFB6EBC3
:10089000020C5FEA500C50F1000041EB045170BDB6
:1008A0000EF0004E4EEA113114EB5C04C2BFD4EBE3
:1008B0000C0541EA045170BD41F480114FF0000E67
:1008C000013C90E645EA060E8DE60CEA135594EAE3
:1008D0000C0F08BF95EA0C0F3FF43BAF94EA0C0FE6
:1008E0000AD150EA01347FF434AF95EA0C0F7FF45B
:1008F00025AF104619462CE795EA0C0F06D152EAAF
:1009000003353FF4FDAE1046194622E750EA410692
:1009100018BF52EA43067FF4C5AE50EA41047FF4A3
:100920000DAF52EA43057FF4EBAE12E74FF0FF3C08
:1009300006E000BF4FF0010C02E000BF4FF0010CD9
:100940004DF804CD4FEA410C7FEA6C5C4FEA430C52
:1009500018BF7FEA6C5C1BD001B050EA410C0CBFA1
:1009600052EA430C91EA030F02BF90EA020F002003
:10097000704710F1000F91EA030F58BF994208BF6A
:1009800090422CBFD8176FEAE37040F00100704727
:100990004FEA410C7FEA6C5C02D150EA013C07D17E
:1009A0004FEA430C7FEA6C5CD6D152EA033CD3D0C9
:1009B0005DF8040B704700BF8446104662468C46C3
:1009C0001946634600E000BF01B5FFF7B7FF0028F6
:1009D00048BF10F1000F01BD4DF808EDFFF7F4FF1F
:1009E0000CBF012000205DF808FB00BF4DF808EDAA
:1009F000FFF7EAFF34BF012000205DF808FB00BFCD
:100A00004DF808EDFFF7E0FF94BF012000205DF8EE
:100A100008FB00BF4DF808EDFFF7CEFF94BF0120A3
:100A200000205DF808FB00BF4DF808EDFFF7C4FF9C
:100A300034BF012000205DF808FB00BF4FEA410CE5
:100A40007FEA6C5C02D150EA013C0AD14FEA430CC8
:100A50007FEA6C5C02D152EA033C02D14FF0000005
:100A600070474FF0010070474FEA410212F5001243
:100A700015D211D56FF47873B3EB625212D94FEAE5
:100A8000C12343F0004343EA505311F0004F23FACF
:100A900002F018BF404270474FF00000704750EA24
:100AA000013005D111F0004008BF6FF000407047E1
:100AB0004FF00000704700BF4A0011D212F500123B
:100AC00011D20DD56FF47873B3EB62520ED44FEAA6
:100AD000C12343F0004343EA505323FA02F0704726
:100AE0004FF00000704750EA013002D14FF0FF3064
:100AF00070474FF0000070474FEA4102B2F1E04307
:100B000024BFB3F5001CDCF1FE5C0DD901F0004CF4
:100B10004FEAC0024CEA5070B2F1004F40EB830044
:100B200008BF20F00100704711F0804F21D113F170
:100B30003872BCBF01F00040704741F480114FEAA9
:100B40005252C2F11802C2F1200C10FA0CF320FA32
:100B500002F018BF40F001004FEAC1234FEAD3234F
:100B600003FA0CFC40EA0C0023FA02F34FEA4303B9
:100B7000CCE77FEA625307D150EA01331EBF4FF042
:100B8000FE4040F44000704701F0004040F0FE405D
:100B900040F40000704700BF80F0004002E000BF5A
:100BA00081F0004142001FBF5FEA410392EA030F58
:100BB0007FEA226C7FEA236C6AD04FEA1262D2EBA2
:100BC0001363C1BFD218414048404140B8BF5B42A7
:100BD000192B88BF704710F0004F40F4000020F040
:100BE0007F4018BF404211F0004F41F4000121F056
:100BF0007F4118BF494292EA030F3FD0A2F10102A0
:100C000041FA03FC10EB0C00C3F1200301FA03F1DD
:100C100000F0004302D5494260EB4000B0F5000F00
:100C200013D3B0F1807F06D340084FEA310102F1BF
:100C30000102FE2A51D2B1F1004F40EBC25008BF71
:100C400020F0010040EA03007047490040EB00003B
:100C5000013A28BFB0F5000FEDD2B0FA80FCACF13C
:100C6000080CB2EB0C0200FA0CF0AABF00EBC25069
:100C700052421843BCBFD0401843704792F0000F57
:100C800081F4000106BF80F400000132013BB5E7AA
:100C90004FEA41037FEA226C18BF7FEA236C21D020
:100CA00092EA030F04D092F0000F08BF0846704785
:100CB00090EA010F1CBF0020704712F07F4F04D153
:100CC000400028BF40F00040704712F100723CBF66
:100CD00000F50000704700F0004343F0FE4040F490
:100CE000000070477FEA226216BF08467FEA23634E
:100CF0000146420206BF5FEA412390EA010F40F439
:100D0000800070474FF0000304E000BF10F0004384
:100D100048BF40425FEA000C08BF704743F096436B
:100D200001464FF000001CE050EA010208BF704786
:100D30004FF000030AE000BF50EA010208BF70470D
:100D400011F0004302D5404261EB41015FEA010C22
:100D500002BF84460146002043F0B64308BFA3F11A
:100D60008053A3F50003BCFA8CF2083AA3EBC253FC
:100D700010DB01FA02FC634400FA02FCC2F120021B
:100D8000BCF1004F20FA02F243EB020008BF20F052
:100D90000100704702F1200201FA02FCC2F12002B8
:100DA00050EA4C0021FA02F243EB020008BF20EAAD
:100DB000DC7070474FF0FF0C1CEAD0521EBF1CEADB
:100DC000D15392EA0C0F93EA0C0F6FD01A4480EAC9
:100DD000010C400218BF5FEA41211ED04FF00063B2
:100DE00043EA501043EA5111A0FB01310CF00040DE
:100DF000B1F5000F3EBF490041EAD3715B0040EA04
:100E0000010062F17F02FD2A1DD8B3F1004F40EBD3
:100E1000C25008BF20F00100704790F0000F0CF0A6
:100E2000004C08BF49024CEA502040EA51207F3A6A
:100E3000C2BFD2F1FF0340EAC250704740F4000045
:100E40004FF00003013A5DDC12F1190FDCBF00F036
:100E500000407047C2F10002410021FA02F1C2F1E4
:100E6000200200FA02FC5FEA310040F1000053EA80
:100E70004C0308BF20EADC70704792F0000F00F0CE
:100E8000004C02BF400010F4000F013AF9D040EAD4
:100E90000C0093F0000F01F0004C02BF490011F468
:100EA000000F013BF9D041EA0C018FE70CEAD15366
:100EB00092EA0C0F18BF93EA0C0F0AD030F0004CE6
:100EC00018BF31F0004CD8D180EA010000F000409A
:100ED000704790F0000F17BF90F0004F084691F058
:100EE000000F91F0004F14D092EA0C0F01D1420292
:100EF0000FD193EA0C0F03D14B0218BF084608D15B
:100F000080EA010000F0004040F0FE4040F40000A4
:100F1000704740F0FE4040F4400070474FF0FF0C37
:100F20001CEAD0521EBF1CEAD15392EA0C0F93EA7E
:100F30000C0F69D0A2EB030280EA010C49024FEAD0
:100F4000402037D04FF0805343EA111143EA101389
:100F50000CF000408B4238BF5B0042F17D024FF441
:100F6000000C8B4224BF5B1A40EA0C00B3EB510F1C
:100F700024BFA3EB510340EA5C00B3EB910F24BF05
:100F8000A3EB910340EA9C00B3EBD10F24BFA3EB8A
:100F9000D10340EADC001B0118BF5FEA1C1CE0D152
:100FA000FD2A3FF650AF8B4240EBC25008BF20F005
:100FB000010070470CF0004C4CEA50207F32C2BF59
:100FC000D2F1FF0340EAC250704740F400004FF0F6
:100FD0000003013A37E792F0000F00F0004C02BF27
:100FE000400010F4000F013AF9D040EA0C0093F0F1
:100FF000000F01F0004C02BF490011F4000F013B4B
:10100000F9D041EA0C0195E70CEAD15392EA0C0FB2
:1010100008D142027FF47DAF93EA0C0F7FF470AFEA
:10102000084676E793EA0C0F04D14B023FF44CAF2D
:1010300008466EE730F0004C18BF31F0004CCAD1C2
:1010400030F000427FF45CAF31F000437FF43CAFFE
:101050005FE700BF4FF0FF3C06E000BF4FF0010C20
:1010600002E000BF4FF0010C4DF804CD4FEA400202
:101070004FEA41037FEA226C18BF7FEA236C11D04C
:1010800001B052EA530C18BF90EA010F58BFB2EBFF
:10109000030088BFC81738BF6FEAE17018BF40F07F
:1010A000010070477FEA226C02D15FEA402C05D133
:1010B0007FEA236CE4D15FEA412CE1D05DF8040BB8
:1010C000704700BF844608466146FFE70FB5FFF74B
:1010D000C9FF002848BF10F1000F0FBD4DF808ED03
:1010E000FFF7F4FF0CBF012000205DF808FB00BFF4
:1010F0004DF808EDFFF7EAFF34BF012000205DF84E
:1011000008FB00BF4DF808EDFFF7E0FF94BF01209A
:1011100000205DF808FB00BF4DF808EDFFF7D2FF97
:1011200094BF012000205DF808FB00BF4DF808EDDA
:10113000FFF7C8FF34BF012000205DF808FB00BFA7
:101140004FEA4002B2F1FE4F0FD34FF09E03B3EBD4
:1011500012620DD94FEA002343F0004310F0004F14
:1011600023FA02F018BF404270474FF0000070476A
:1011700012F1610F01D1420205D110F0004008BF09
:101180006FF0004070474FF00000704753B94AB904
:10119000002908BF00281CBF4FF0FF314FF0FF307F
:1011A00000F09EB9ADF1080C6DE904CE00F03CF8FA
:1011B000DDF804E0DDE9022304B0704738B5002211
:1011C000002304460D46FFF711FC28B920462946A6
:1011D000BDE8384000F00AB8204605F1004100F0B3
:1011E00005F8404261EB410138BD00BFD0B5002297
:1011F0000B4B06460F46FFF787F9FFF75DFC0446E9
:10120000FFF708F90022074BFFF77EF902460B466D
:1012100030463946FEF7C0FFFFF74EFC2146D0BDF1
:101220000000F03D0000F0412DE9F047089D0C461C
:10123000002B4ED194468C458646B2FA82F262D992
:101240004AB1C2F12003914020FA03F30CFA02FCE8
:10125000194300FA02FE4FEA1C47B1FBF7F407FB03
:1012600014111FFA8CF64FEA1E4343EA014304FBB4
:1012700006F199420AD91CEB030304F1FF3080F018
:101280001081994240F20D81023C6344591AB1FB2E
:10129000F7F007FB101100FB06F61FFA8EF343EA86
:1012A00001439E420AD91CEB030300F1FF3180F099
:1012B000FA809E4240F2F7806344023800219B1B73
:1012C00040EA04401DB1D3400022C5E90032BDE828
:1012D000F0878B4205D90DB1C5E900010021084610
:1012E000F5E7B3FA83F1002946D1A34202D3904235
:1012F000C0F0EE80861A64EB03030120002DE6D0D7
:10130000C5E90063E3E7002A40F08F80A1EB0C04FD
:1013100001214FEA1C481FFA8CF7B4FBF8F608FBD2
:10132000164407FB06F04FEA1E4343EA0443984283
:1013300008D91CEB030306F1FF3402D2984200F2F5
:10134000CB8026461C1AB4FBF8F008FB104400FBC7
:1013500007F71FFA8EF343EA04439F4208D91CEBB8
:10136000030300F1FF3402D29F4200F2AE80204618
:10137000DB1B40EA0640A5E7C1F120078B4022FABB
:1013800007FC4CEA030C24FA07F64FEA1C49B6FBAB
:10139000F9F81FFA8CFE09FB186620FA07F38C4057
:1013A00000FA01FA08FB0EF01C43230C43EA064343
:1013B000984202FA01F20AD91CEB030308F1FF3646
:1013C00080F0818098427ED9A8F1020863441E1AF9
:1013D000B6FBF9F309FB136603FB0EFEA4B244EA65
:1013E0000644A64508D91CEB040403F1FF3066D27D
:1013F000A64564D9023B644443EA0840A0FB02834B
:10140000A4EB0E049C42C6461E4650D34DD055B1A7
:10141000BAEB0E0364EB060404FA07F7CB401F4354
:10142000CC40C5E90074002151E70CFA02FCC2F17E
:101430002003D9404FEA1C4820FA03F300FA02FEC9
:10144000B1FBF8F008FB101194401C431FFA8CF715
:10145000230C43EA014300FB07F1994208D91CEB36
:10146000030300F1FF362CD299422AD90238634493
:101470005B1AB3FBF8F108FB1133A4B244EA03444E
:1014800001FB07F3A34208D91CEB040401F1FF366A
:1014900013D2A34211D902396444E41A41EA00414B
:1014A0003BE70446F2E6084608E7C245AFD2B8EB90
:1014B000020E63EB0C060138A9E73146EDE703465F
:1014C0009AE73046D4E7B04681E7634402384FE7F5
:1014D00006462346084611E7023E634432E700BF52
:1014E000704700BF80B500AF044B1B680133034A4F
:1014F000136000F011FB00BF80BD00BF6C03002033
:1015000080B483B000AF00237B601AE07B680433B3
:1015100012497A680A441178114AD1547B6804331D
:101520000E497A680A4411780E4AD1547B68043314
:101530000A497A680A4411780B4AD1547B6801330E
:101540007B607B68052B03DC7B680433182BDDD9BB
:1015500000BF0C37BD4680BC704700BF5C00002058
:10156000000000201C0000203800002080B582B060
:1015700000AF78600648FEF703FE03469BB21A46AA
:101580000349786806F03AFB00BF0837BD4680BDC6
:101590000000002080B582B000AF78600648FEF7FA
:1015A000EFFD03469BB21A460349786806F026FB16
:1015B00000BF0837BD4680BD1C00002080B582B04A
:1015C00000AF7860314B1B78032B41D0032B54DCE8
:1015D000012B02D0022B1FD04FE0FFF791FF2C4BC5
:1015E0001B78DBB2002B0DD07868FFF7BFFF4FF4FC
:1015F00096731A460121274801F064F8234B022212
:101600001A703FE0244B00221A607868FFF7C2FF8F
:101610001E4B03221A7035E01F4B1B68632B07DC3F
:101620001B4B1B78DBB283F00103DBB2002B26D00F
:10163000184801F03FF9164B00221A70164B002291
:101640001A607868FFF7A6FF104B03221A7016E0A5
:1016500000F056FA0E4B1B78DBB2002B11D07868E5
:10166000FFF784FF4FF496731A460121094801F0F1
:1016700029F8064B02221A7003E000BF02E000BF07
:1016800000E000BF00BF0837BD4680BDCB0300208F
:10169000D3040020E51400086C03002080B485B05A
:1016A00000AF786039607B6801331B78492B1AD111
:1016B0007B6802331B78442B15D10023FB600FE0BD
:1016C000FB683A6813441A78FB68043379680B4462
:1016D0001B789A4201D0002306E0FB680133FB60CF
:1016E000FB68052BECDD012318461437BD4680BC92
:1016F0007047000080B485B000AF78603960002387
:10170000FB600FE00C4AFB6813441A78FB680B334C
:1017100079680B441B789A4201D0002306E0FB68ED
:101720000133FB60FB68032BECDD01231846143703
:10173000BD4680BC704700BF6401002080B582B008
:1017400000AF7860264B1B78032B28D0032B40DC9E
:10175000012B02D0022B0CD03BE0224B1B78DBB2DA
:10176000002B38D01F4B00221A701D4B02221A701A
:1017700031E01D491D48FFF791FF0346012B0AD1B7
:1017800019491A48FFF7B6FF0346012B03D1144B42
:1017900003221A7020E0124B01221A701CE0134B36
:1017A0001B7C312B06D1124B01221A700C4B0122EB
:1017B0001A7011E00D4B1B7C302B06D10C4B002214
:1017C0001A70074B01221A7006E0054B01221A70AD
:1017D00002E000BF00E000BF00BF0837BD4680BD8B
:1017E000C9030020D10400205C000020D0030020A9
:1017F000D304002080B582B000AF78600C497868CF
:1018000000F0FCFE0A4BD3E902230A49C1E9002398
:10181000074BD3E904230849C1E90023044BD3E96A
:1018200006230649C1E9002300BF0837BD4680BD35
:1018300070030020D8040020E0040020E804002009
:1018400080B582B000AF7860786801F089FD03460A
:10185000024A136000BF0837BD4680BD6801002002
:10186000F0B5ADF23C4D08AF07F58363A3F2144326
:10187000186007F58363A3F20C43204A92E8030043
:1018800018600433198007F10C031D49184600F055
:1018900065F91C4B1B68C7F814341B4BD3E90023B4
:1018A0001A49D1E900011A4C30CC07F10C0E07F1AE
:1018B000140CD7F814640696CDE90445CDE902016D
:1018C000CDE900237346134A4FF48061604608F067
:1018D0007DFA07F114031846FEF752FC03469AB24C
:1018E00007F1140107F58363A3F21443186806F0A7
:1018F00085F900BF07F21C47BD46F0BD9CCA000831
:101900005C00002068010020D8040020E0040020D2
:10191000E804002068CA000880B485B000AF786091
:1019200039607B6803331B78492B26D17B680433ED
:101930001B78442B21D10023FB6019E0FB680633A0
:101940007A6813441B782F2B16D9FB6806337A6804
:1019500013441B78392B0FD8FB6806337A681A4476
:10196000FB6839680B4412781A70FB680133FB601E
:10197000FB68052BE2DD00E000BF1437BD4680BCEC
:10198000704780B500AF00F0AFF800F0CFF8C82086
:1019900001F07EFB00F0D6F800F0B2F800BF80BD89
:1019A00080B582B000AF78603960434B1B78042B60
:1019B0007BD801A252F823F0CD190008DF190008E6
:1019C0001B1A00084F1A0008671A00083B4B002238
:1019D0001A70FFF7D6FF384B01221A7068E04FF4F7
:1019E00080723749786806F009F9364B1B78DBB20C
:1019F00083F00103DBB2002B08D040F6B8331A465F
:101A0000314B1A602C4B02221A7051E02D4B0022F0
:101A10001A70294B03221A704AE02A4B1B78DBB25A
:101A2000002B06D0274B00221A70234B03221A707A
:101A30003EE0254B1B68002B03DC1F4B01221A7074
:101A400036E0214B1B68013B1F4A136030E03B68C6
:101A50001B78002B2BD01D493868FFF75DFF164B14
:101A600004221A7023E0FFF78CFFC82001F010FB5E
:101A7000FFF787FF06221549786806F0BFF8144B78
:101A800001221A70134B01221A70134B01221A7093
:101A9000124B01221A70124B01221A70114B0122B3
:101AA0001A70064B01221A7002E000BF00E000BF6E
:101AB00000BF0837BD4680BDC8030020D604002003
:101AC00064000020D1040020580000205C000020A9
:101AD000C9030020CA030020CB030020CC03002050
:101AE000D7040020D204002080B500AF002240219E
:101AF000024802F0C5F900BF80BD00BF00000240EF
:101B000080B500AF01224021024802F0B9F900BFC0
:101B100080BD00BF0000024080B500AF40210248F8
:101B200002F0C6F900BF80BD0000024080B500AFE2
:101B300000222021024802F0A3F900BF80BD00BFAF
:101B40000000024080B500AF01222021024802F0CF
:101B500097F900BF80BD00BF0000024080B485B08F
:101B600000AF786039600023FB600AE0FB683A68E8
:101B70001A44FB6879680B4412781A70FB680133C9
:101B8000FB60FB68052BF1DD7B68063300221A70D1
:101B900000BF1437BD4680BC7047000080B586B0DA
:101BA00000AF78601149786808F010FA78617B69B5
:101BB000002B16D00E49786908F008FA38613B69A5
:101BC000002B0ED03A697B69D31A0233FB60FA68A6
:101BD0007969084808F08BF9064AFB68134400222B
:101BE0001A7000BF1837BD4680BD00BFCCCA0008C0
:101BF000D4CA00086C080020B0B58AB000AF786085
:101C00006549786808F0E2F978627B6A002B00F099
:101C1000BE806249786A08F07DF978625F490020E9
:101C200008F078F978625D49002008F073F978626D
:101C30007B6A002B51D0786A06F0A2FD02460B4663
:101C400010461946FEF758FF03463B625449386A6E
:101C5000FFF764F903461846FFF772FA0346184681
:101C6000FFF754F80346FB614D49F869FFF7A2F806
:101C700003461946386AFEF793FF0346BB61F869CD
:101C8000FEF7EAFB04460D46B869FEF7E5FB4FF0A8
:101C90000002444BFEF762FD02460B4620462946F1
:101CA000FEF77CFA02460B4610461946FEF724FF63
:101CB00003463D4A13603949002008F02BF9786249
:101CC0007B6A002B09D07B6A1B78532B05D1364BDE
:101CD0001B6883F00043344A13603049002008F049
:101CE00019F978627B6A002B51D0786A06F048FDBA
:101CF00002460B4610461946FEF7FEFE03467B6180
:101D000027497869FFF70AF903461846FFF718FADA
:101D100003461846FEF7FAFF03463B61204938693F
:101D2000FFF748F8034619467869FEF739FF03467E
:101D3000FB603869FEF790FB04460D46F868FEF735
:101D40008BFB4FF00002174BFEF708FD02460B46D7
:101D500020462946FEF722FA02460B46104619464F
:101D6000FEF7CAFE0346114A13600C49002008F032
:101D7000D1F878627B6A002B09D07B6A1B78572BDD
:101D800005D10A4B1B6883F00043084A136000BF6B
:101D90002837BD46B0BD00BFCCCA0008D8CA00086D
:101DA0000000C84200004E40700C00206C0C002067
:101DB0002DE9B04386B006AF2C4B1B684FF00001F5
:101DC0001846FFF78BF90346002B3AD1284B1B68C6
:101DD0004FF000011846FFF781F90346002B30D180
:101DE00024492548FFF7BAFE214B1B681846FEF729
:101DF00033FB04460D461D4B1B681846FEF72CFBB3
:101E0000804689461D4B1B681846FEF725FB024697
:101E10000B46CDE90423CDE90289CDE90045164BF7
:101E2000174A4FF40071174807F0D0FF1548FEF726
:101E3000A7F903469BB21A461249134805F0DEFE85
:101E400010E0124A4FF400710E4807F0BFFF0D4832
:101E5000FEF796F903469BB21A460A490A4805F06E
:101E6000CDFE00BF00BFBD46BDE8B083700C0020B2
:101E70006C0C00205C000020700100206C01002030
:101E8000DCCA00086C0A0020D8050020FCCA000843
:101E900080B582B000AF78607B681B68214A9342AE
:101EA0002BD1214B1B780D2B16D0204B1B78FF2BF1
:101EB0000BD01E4B1B785A1CD1B21C4A11701A460B
:101EC000194B19781A4B995412E0184B00221A70CA
:101ED000184B01221A700BE0144B1B781A46144B56
:101EE00000219954114B00221A70124B01221A70D2
:101EF00001220D49104805F0B6FE7B681B680F4AA9
:101F000093420BD10E48FFF749FE0E48FFF774FECF
:101F10004FF400720A490C4805F0A5FE00BF0837CF
:101F2000BD4680BD00380140CD030020D004002014
:101F3000D0030020D1040020D80500200044004038
:101F40006C0600206C0800202006002080B500AF41
:101F500002490348FFF724FD00BF80BDD0030020E5
:101F6000D805002080B500AF0248FFF7E7FB00BFAF
:101F700080BD00BFD805002080B500AF0248FFF744
:101F80001DFB00BF80BD00BFD805002080B500AF9D
:101F90000348FFF755FC0348FFF72CFC00BF80BD4A
:101FA000F00400204405002080B500AF044B1B78EE
:101FB000DBB2002B02D00348FFF752FC00BF80BD0C
:101FC000D7040020D805002080B500AF00F0F1FF55
:101FD00000F0A0F800F012FA00F0EAF800F040F982
:101FE00000F06CF900F0B6F900F0DEF9364805F0C3
:101FF00045FA00220121354801F042FF002202216A
:10200000324801F03DFF01224021314801F038FF04
:10201000012220212E4801F033FF01222D492E48B4
:1020200005F021FE4FF400722C492D4805F01BFEEF
:102030002C4800F08BFA012201212B4800F042FBD2
:1020400001220221294800F03DFB012203212848FA
:1020500000F038FB01220521264800F033FB4FF445
:102060007A7000F075FC41F2883000F085FC224B5C
:102070001B78DBB2002B0BD0204B1B78002B07D03A
:102080001E4B00221A701E48FFF7B6FDFFF790FEA8
:102090001C4B1B68012B09D11B4B01221A701B4BD7
:1020A00001221A7041F2883000F066FC184B1B7850
:1020B000DBB2002B05D0164B00221A700A4800F044
:1020C000F9FB00F0B5FBD2E79805002000040240C0
:1020D00000000240CD030020D80500206C0600203F
:1020E00020060020440500204D1F0008651F000841
:1020F000791F00088D1F0008D60400206806002004
:102100006C0800201C0E0020D5040020D404002000
:10211000D204002080B592B000AF07F1140334223E
:102120000021184607F0C9FE3B4600221A605A609B
:102130009A60DA601A611D4B1B6823F4C0531B4A76
:1021400043F40063136002237B6101233B6210238D
:102150007B620223BB630023FB634FF480233B6459
:102160004FF480037B6407F11403184604F092FBDC
:102170000346002B01D000F0E3F90F233B6003235B
:102180007B600023BB600023FB6000233B613B4678
:102190000121184604F0AEFE0346002B01D000F0EA
:1021A000CFF900BF4837BD4680BD00BF007000407A
:1021B00080B584B000AF3B1D00221A605A609A605F
:1021C000254B264A1A60244B00225A60224B0022DB
:1021D0009A60214B0022DA601F4B00221A611E4BCD
:1021E00000225A611C4B00229A611B4B0022DA61CB
:1021F000194B00221A62184B002283F82420164B38
:1022000001229A62144B002283F82C20124B1022D8
:102210005A63114B00229A630F4B002283F83C2033
:102220000D4800F057FF0346002B01D000F088F95D
:1022300000237B600123BB600023FB603B1D19462C
:10224000054801F0ABF90346002B01D000F078F906
:1022500000BF1037BD4680BDF004002000240140BF
:1022600080B500AF124B134A1A60114B124A5A60E4
:102270000F4B00229A600E4B0022DA600C4B4FF499
:1022800080421A610A4B00225A61094B00229A616E
:10229000074B0022DA61064B00221A62044801F063
:1022A00021FE0346002B01D000F04AF900BF80BD9B
:1022B0004405002000540040801A060080B586B016
:1022C00000AF07F1080300221A605A609A60DA60D2
:1022D0003B4600221A605A601D4B4FF080421A6044
:1022E0001B4B40F69F725A60194B00229A60184BA4
:1022F0000722DA60164B00221A61154B00225A6140
:10230000134805F07BF80346002B01D000F018F9C4
:102310004FF48053BB6007F1080319460C4805F0E1
:10232000DBF90346002B01D000F00AF900233B60E3
:1023300000237B603B461946054805F0B1FB034688
:10234000002B01D000F0FCF800BF1837BD4680BD5F
:102350009805002080B500AF114B124A1A60104B4F
:102360004FF416525A600E4B00229A600C4B00221A
:10237000DA600B4B00221A61094B0C225A61084BA0
:1023800000229A61064B0022DA61054805F0E6FB5F
:102390000346002B01D000F0D3F800BF80BD00BF82
:1023A000D80500200038014080B500AF114B124A1B
:1023B0001A60104B4FF416525A600E4B00229A606E
:1023C0000C4B0022DA600B4B00221A61094B0C22E5
:1023D0005A61084B00229A61064B0022DA610548D7
:1023E00005F0BCFB0346002B01D000F0A9F800BFAC
:1023F00080BD00BF200600200044004080B588B0AA
:1024000000AF07F10C0300221A605A609A60DA608C
:102410001A61274BDB69264A43F02003D361244B22
:10242000DB6903F02003BB60BB68214BDB69204AFA
:1024300043F00103D3611E4BDB6903F001037B60B2
:102440007B681B4BDB691A4A43F00203D361184BCC
:10245000DB6903F002033B603B6800226021154802
:1024600001F00EFD00220321134801F009FD602355
:10247000FB6001233B6100237B610023BB6107F10B
:102480000C0319460B4801F07BFB0323FB6001237F
:102490003B6100237B610023BB6107F10C031946FC
:1024A000054801F06DFB00BF2037BD4680BD00BF71
:1024B00000380240000002400004024080B582B0B3
:1024C00000AF786000F054F900F06AFA7B681B688E
:1024D000B3F1804F26D1154B1B6841F287329342EE
:1024E00005DD124B00221A60114B01221A70114BAC
:1024F0001B6841F2024293420ADD0E4B00221A6031
:102500000D48FFF777F90D48FFF79AF9FFF74CFDF3
:10251000064B1B680133054A1360064B1B680133E9
:10252000044A136000BF0837BD4680BD780C002008
:1025300068060020740C002044050020F0040020F0
:1025400080B400AF72B600BF00BFFDE780B588B0B1
:1025500004AF7860642302930123019307F10F0312
:10256000009301237522D021786801F00DFFFB7BD9
:10257000682B3DD10023BB73642302930123019395
:1025800007F10E03009301236B22D021786801F03C
:1025900001FE0723BB73642302930123019307F118
:1025A0000E03009301231922D021786801F0F2FD77
:1025B0000023BB73642302930123019307F10E03ED
:1025C000009301231C22D021786801F0E3FD002351
:1025D000BB73642302930123019307F10E0300935D
:1025E00001231B22D021786801F0D4FD002300E0F4
:1025F000012318461037BD4680BD000080B588B065
:1026000004AF78603960642302930623019307F1D5
:102610000803009301233B22D021786801F0B4FE27
:102620003B7A1B021AB27B7A1BB213431AB23B6885
:102630001A80BB7A1B021AB2FB7A1BB213431AB27E
:102640003B685A803B7B1B021AB27B7B1BB2134355
:102650001AB23B689A803B68B3F900301846FDF720
:10266000E9FE4FF00002164BFEF778F802460B46E3
:102670003968C1E902233B68B3F902301846FDF717
:10268000D9FE4FF000020E4BFEF768F802460B46EB
:102690003968C1E904233B68B3F904301846FDF7F3
:1026A000C9FE4FF00002064BFEF758F802460B46F3
:1026B0003968C1E9062300BF1037BD4680BD00BFA1
:1026C0000000D04080B485B000AFF860B9607A6097
:1026D000254B1B78132B42D8234B1B781946234AD2
:1026E0000B469B000B449B001344FA681A601E4B78
:1026F0001B7819461D4A0B469B000B449B00134454
:102700000433BA681A60184B1B781946174A0B46EF
:102710009B000B449B00134408337A681A60124BE9
:102720001B781946114A0B469B000B449B0013442F
:102730000C3300221A700C4B1A780B4B1B7819467D
:1027400010460A4A0B469B000B449B00134410336F
:102750001860054B1B780133DAB2034B1A7000BFC7
:102760001437BD4680BC70470C0E00207C0C002046
:1027700080B483B000AF00237B6048E02A497A68C8
:1027800013469B0013449B000B4404331B68002B2F
:1027900013D025497A6813469B0013449B000B44D1
:1027A00004331B68591E20487A6813469B00134463
:1027B0009B0003440433196026E01B497A681346E2
:1027C0009B0013449B000B440833196816487A6831
:1027D00013469B0013449B000344043319601249C1
:1027E0007A6813469B0013449B000B440C331B7800
:1027F0000133D8B20C497A6813469B0013449B00FE
:102800000B440C3302461A707B6801337B60074B24
:102810001B781A467B689342B0DB00BF00BF0C37C1
:10282000BD4680BC704700BF7C0C00200C0E002011
:1028300080B582B000AF00237B602BE01B497A6833
:1028400013469B0013449B000B440C331B78002B56
:102850001DD016497A6813469B0013449B000B4415
:102860000C331B78013BD8B210497A6813469B00A1
:1028700013449B000B440C3302461A700B497A68D0
:1028800013469B0013449B000B441B6898477B68CE
:1028900001337B60064B1B781A467B689342CDDB85
:1028A00000BF00BF0837BD4680BD00BF7C0C0020C4
:1028B0000C0E0020B0B485B000AF78600023FB6040
:1028C00035E02149FA6813469B0013449B000B44F2
:1028D0001B687A689A4227D1FB68BB6017E0BB6827
:1028E0005A1C1948B9680B469B000B449B001844BE
:1028F000154913469B0013449B000B4404461D4698
:102900000FCD0FC42B682360BB680133BB600F4B36
:102910001B78013BBA689A42E1DB0C4B1B78013B08
:10292000DAB20A4B1A7009E0FB680133FB60074B0F
:102930001B781A46FB689342C3DB00BF00BF143705
:10294000BD46B0BC704700BF7C0C00200C0E0020C0
:1029500080B483B000AF7860054A7B681360054B94
:1029600000221A6000BF0C37BD4680BC704700BF14
:10297000100E0020140E002080B483B000AF7860E9
:10298000054A7B681360054B00221A6000BF0C37B4
:10299000BD4680BC704700BF180E00201C0E0020F2
:1029A00080B400AF194B1B68002B0BDD174B1B6865
:1029B000013B164A1360154B1B68002B02DC144BBD
:1029C00001221A60134B1B68002B0BDD114B1B6897
:1029D000013B104A13600F4B1B68002B02DC0E4BAF
:1029E00001221A600D4B1B68002B0BDD0B4B1B6883
:1029F000013B0A4A1360094B1B68002B02DC084BA1
:102A000001221A6000BFBD4680BC7047100E002036
:102A1000140E0020180E00201C0E0020200E002096
:102A2000240E002080B485B000AF144B5B6A134ABB
:102A300043F000435362114B5B6A03F00043FB60B9
:102A4000FB680E4B1B6A0D4A43F0010313620B4BEC
:102A50001B6A03F00103BB60BB68084B5B6A074A53
:102A600043F080535362054B5B6A03F080537B60F5
:102A70007B6800BF1437BD4680BC704700380240F9
:102A800080B58AB000AF786007F1140300221A60A5
:102A90005A609A60DA601A617B681B68194A93422F
:102AA0002BD1194B1B6A184A43F400731362164B5F
:102AB0001B6A03F400733B613B69134BDB69124AE9
:102AC00043F00103D361104BDB6903F00103FB60AA
:102AD000FB6801237B610323BB610023FB6107F1DA
:102AE00014031946094801F04BF800220021122076
:102AF00000F085FF122000F09EFF00BF2837BD4682
:102B000080BD00BF002401400038024000000240A8
:102B100080B58AB000AF786007F1140300221A6014
:102B20005A609A60DA601A617B681B681F4A934298
:102B300037D11F4BDB691E4A43F00203D3611C4BA4
:102B4000DB6903F002033B613B69C0237B61122315
:102B5000BB610023FB6103233B6204237B6207F11B
:102B600014031946134801F00BF8114B5B6A104A25
:102B700043F4001353620E4B5B6A03F40013FB60D3
:102B8000FB68002200211F2000F039FF1F2000F009
:102B900052FF00220021202000F031FF202000F011
:102BA0004AFF00BF2837BD4680BD00BF005400402B
:102BB000003802400004024080B584B000AF786065
:102BC0007B681B68B3F1804F13D10C4B5B6A0B4AD7
:102BD00043F001035362094B5B6A03F00103FB609E
:102BE000FB68002200211C2000F009FF1C2000F0DF
:102BF00022FF00BF1037BD4680BD00BF0038024035
:102C000080B58CB000AF786007F11C0300221A6019
:102C10005A609A60DA601A617B681B68364A934290
:102C200031D1364B1B6A354A43F480431362334B30
:102C30001B6A03F48043BB61BB69304BDB692F4ADD
:102C400043F00103D3612D4BDB6903F001037B618A
:102C50007B694FF4C063FB6102233B6200237B620C
:102C60000323BB620723FB6207F11C0319462448B8
:102C700000F086FF00220021252000F0C0FE252064
:102C800000F0D9FE34E07B681B681E4A93422FD1C6
:102C90001A4B5B6A194A43F400335362174B5B6A61
:102CA00003F400333B613B69144BDB69134A43F087
:102CB0000103D361114BDB6903F00103FB60FB6887
:102CC0000C23FB6102233B6200237B620323BB6274
:102CD0000723FB6207F11C031946094800F050FF67
:102CE00000220021262000F08AFE262000F0A3FE0C
:102CF00000BF3037BD4680BD00380140003802407B
:102D0000000002400044004080B400AF00BFFDE777
:102D100080B400AF00BFFDE780B400AF00BFFDE7A7
:102D200080B400AF00BFFDE780B400AF00BFFDE797
:102D300080B400AF00BFBD4680BC704780B400AF18
:102D400000BFBD4680BC704780B400AF00BFBD4629
:102D500080BC704780B500AF00F07EF900BF80BD39
:102D600080B500AF024800F007FB00BF80BD00BF88
:102D7000F004002080B500AF024804F0D1FB00BF92
:102D800080BD00BF9805002080B500AF024801F06B
:102D900021FD00BF80BD00BF4405002080B500AF0D
:102DA000024801F06AFE00BF80BD00BF440500205C
:102DB00080B500AF024804F07BFF00BF80BD00BFBC
:102DC000D805002080B500AF024804F071FF00BFB5
:102DD00080BD00BF2006002080B400AF012318464C
:102DE000BD4680BC704780B582B000AF7860396066
:102DF00007F04CF9034616221A604FF0FF331846CD
:102E00000837BD4680BD80B582B000AF78604FF016
:102E1000FF317868FFF7E7FF00BFFDE780B586B0B8
:102E200000AFF860B9607A6000237B610AE0AFF31D
:102E300000800146BB685A1CBA60CAB21A707B692E
:102E400001337B617A697B689A42F0DB7B681846C4
:102E50001837BD4680BD80B586B000AFF860B96058
:102E60007A6000237B6109E0BB685A1CBA601B785A
:102E70001846AFF300807B6901337B617A697B6818
:102E80009A42F1DB7B6818461837BD4680BD80B496
:102E900083B000AF78604FF0FF3318460C37BD4663
:102EA00080BC704780B483B000AF786039603B6805
:102EB0004FF400525A60002318460C37BD4680BCC0
:102EC000704780B483B000AF7860012318460C3798
:102ED000BD4680BC704780B485B000AFF860B96073
:102EE0007A60002318461437BD4680BC7047000046
:102EF00080B586B000AF7860144A154BD31A7B6159
:102F00007B693B61134B1B68002B02D1114B124AAA
:102F10001A60104B1A687B6813443A699A4207D2C8
:102F200007F0B4F803460C221A604FF0FF3309E0B3
:102F3000084B1B68FB60074B1A687B681344054A03
:102F40001360FB6818461837BD4680BD008000201E
:102F500000040000280E0020800F002080B400AF85
:102F600000BFBD4680BC7047FFF7F8FF0B480C4917
:102F70000C4A002302E0D458C4500433C4188C42D5
:102F8000F9D3094A094C002301E013600432A2423C
:102F9000FBD307F081F8FFF717F870470000002017
:102FA0004C030020CCCF0008500300207C0F0020F1
:102FB000FEE780B582B000AF0023FB71032000F074
:102FC00013FD0F2000F00EF80346002B02D0012362
:102FD000FB7101E0FFF726FDFB7918460837BD4677
:102FE00080BD000080B584B000AF78600023FB7323
:102FF000164B1B68002B22D0154B1A68134B1B680D
:103000004FF47A71B1FBF3F3B2FBF3F3184600F01F
:1030100020FD0346002B0FD17B680F2B09D800221F
:1030200079684FF0FF3000F0EAFC0A4A7B681360D1
:1030300007E00123FB7304E00123FB7301E001239C
:10304000FB73FB7B18461037BD4680BD8001002016
:10305000780100207C01002080B400AF054B1A6885
:10306000054B1B681344034A136000BFBD4680BC78
:10307000704700BF2C0E00208001002080B400AFFC
:10308000024B1B681846BD4680BC70472C0E0020C2
:1030900080B584B000AF7860FFF7F0FFB8607B6860
:1030A000FB60FB68B3F1FF3F04D0094B1B68FA6873
:1030B0001344FB6000BFFFF7E1FF0246BB68D31A71
:1030C000FA689A42F7D800BF00BF1037BD4680BDEE
:1030D0008001002080B58EB000AF7860002387F8B3
:1030E000373000233B630023FB627B68002B01D158
:1030F000012327E17B681B69002B7B68DB6C002BBD
:1031000015D17B6800221A657B68002283F848206D
:103110008E4B1B6A8D4A43F0010313628B4B1B6A73
:1031200003F00103BB60BB687868FFF7A9FC7B680C
:10313000DB6C03F01003002B40F0FF807B68DB6C3E
:1031400023F4885323F0020343F002027B68DA641D
:103150007F4B5B6823F440327B685B687C49134398
:103160004B607B68DA687B685B691A437B6893F81D
:103170003C3019464FF400733B623B6A93FAA3F369
:10318000FB61FB69B3FA83F3DBB201FA03F31A4381
:103190007B681B6A1A437B6893F824301946022324
:1031A000BB62BB6A93FAA3F37B627B6AB3FA83F3D5
:1031B000DBB201FA03F31343FA6A1343FB627B6841
:1031C0005B6B102B07D07B685A6B7B689B6B134340
:1031D000FA6A1343FB627B681B681B6803F04003B9
:1031E000402B4FD07B689B69FA6A1343FB627B6874
:1031F0009A687B68DB6913437A681269B2F5807F4D
:1032000003D07A681269012A02D14FF4807200E07B
:10321000002213433A6B13433B637B6893F82C30D3
:10322000012B25D17B6893F82430002B14D17B68C7
:103230001B6B013B4FF46042BA61BA6992FAA2F289
:103240007A617A69B2FA82F2D2B2934043F40063AF
:103250003A6B13433B630BE07B68DB6C43F020026B
:103260007B68DA647B681B6D43F001027B681A653A
:103270007B681B685A68374B13407A681268396B51
:103280000B4353607B681B689A68334B13407A6822
:103290001268F96A0B4393607B681B69B3F5807F02
:1032A00003D07B681B69012B19D17B681B681B6BE2
:1032B00023F0F8717B689B6A013B4FF0F8723A612A
:1032C0003A6992FAA2F2FA60FA68B2FA82F2D2B2DB
:1032D00003FA02F27B681B680A431A6307E07B6803
:1032E0001B681A6B7B681B6822F0F8721A637B6894
:1032F0001B689A68194B1340FA6A9A420BD17B6893
:1033000000221A657B68DB6C23F0030343F00102A3
:103310007B68DA6414E07B68DB6C23F0120343F013
:1033200010027B68DA647B681B6D43F001027B68E6
:103330001A65012387F8373002E0012387F8373018
:1033400097F8373018463837BD4680BD0038024000
:1033500000270140FF16FCFC8DF1FFC0FEFF80BF7F
:1033600080B483B000AF78607B681B689B6D1846A3
:103370000C37BD4680BC704780B584B000AF786024
:103380007B681B681B68FB607B681B685B68BB60B5
:10339000BB6803F02003002B4CD0FB6803F0020352
:1033A000002B47D07B68DB6C03F01003002B05D1AA
:1033B0007B68DB6C43F400727B68DA647B681B68B3
:1033C0009B6803F04053002B2CD17B6893F824308A
:1033D000002B27D17B681B681B6B03F0F873002B55
:1033E00006D07B681B689B6803F48063002B19D1AF
:1033F0007B681B685A687B681B6822F020025A6051
:103400007B68DB6C23F480727B68DA647B68DB6C3E
:1034100003F48053002B05D17B68DB6C43F0010281
:103420007B68DA64786800F09EF87B681B686FF050
:1034300012021A60BB6803F08003002B5AD0FB68AD
:1034400003F00403002B55D07B68DB6C03F0100302
:10345000002B05D17B68DB6C43F400527B68DA6497
:103460007B681B689B6803F44013002B3AD17B6890
:103470001B685B6C03F44013002B06D07B681B6851
:103480009B6803F48063002B2CD17B681B685B680E
:1034900003F48063002B25D17B681B689B6803F0D5
:1034A0004053002B1ED17B6893F82430002B19D198
:1034B0007B681B685A687B681B6822F080025A6030
:1034C0007B68DB6C23F480527B68DA647B68DB6C9E
:1034D00003F48073002B05D17B68DB6C43F00102A1
:1034E0007B68DA64786800F0A9F97B681B686FF084
:1034F0000C021A60BB6803F04003002B12D0FB687B
:1035000003F00103002B0DD07B68DB6C43F48032A9
:103510007B68DA64786800F02FF87B681B686FF0CE
:1035200001021A60BB6803F08063002B17D0FB68B0
:1035300003F02003002B12D07B681B6D43F00202C6
:103540007B681A657B681B686FF020021A607868D8
:1035500000F01BF87B681B686FF020021A6000BF48
:103560001037BD4680BD80B483B000AF786000BF27
:103570000C37BD4680BC704780B483B000AF786024
:1035800000BF0C37BD4680BC704780B483B000AF2D
:10359000786000BF0C37BD4680BC704780B485B0F2
:1035A00000AF786039600023FB730023BB607B6849
:1035B00093F84830012B01D1022334E17B680122CA
:1035C00083F848203B685B68062B1CD87B681B6827
:1035D000196C3B685A6813469B001344053B1F2235
:1035E00002FA03F3DB4319403B6818683B685A68EA
:1035F00013469B001344053B00FA03F27B681B68EB
:103600000A431A647EE03B685B680C2B1CD87B681D
:103610001B68D96B3B685A6813469B001344233BD5
:103620001F2202FA03F3DB4319403B6818683B682A
:103630005A6813469B001344233B00FA03F27B684D
:103640001B680A43DA635DE03B685B68122B1CD899
:103650007B681B68996B3B685A6813469B00134450
:10366000413B1F2202FA03F3DB4319403B68186811
:103670003B685A6813469B001344413B00FA03F22F
:103680007B681B680A439A633CE03B685B68182BC5
:103690001CD87B681B68596B3B685A6813469B00B3
:1036A00013445F3B1F2202FA03F3DB4319403B68DC
:1036B00018683B685A6813469B0013445F3B00FA46
:1036C00003F27B681B680A435A631BE07B681B6834
:1036D000196B3B685A6813469B0013447D3B1F22BD
:1036E00002FA03F3DB4319403B6818683B685A68E9
:1036F00013469B0013447D3B00FA03F27B681B6872
:103700000A431A633B681B68092B1AD87B681B683D
:1037100059693B681A6813465B001344072202FA92
:1037200003F3DB4319403B6898683B681A6813460B
:103730005B00134400FA03F27B681B680A435A617A
:1037400042E03B681B68132B1CD87B681B68196917
:103750003B681A6813465B0013441E3B072202FABB
:1037600003F3DB4319403B6898683B681A681346CB
:103770005B0013441E3B00FA03F27B681B680A439C
:103780001A6121E03B681B681A2B1CD87B681B68F8
:10379000D9683B681A6813465B0013443C3B072218
:1037A00002FA03F3DB4319403B6898683B681A68E8
:1037B00013465B0013443C3B00FA03F27B681B6832
:1037C0000A43DA6000E000BF3B681B68102B03D09F
:1037D0003B681B68112B21D1154B5B6803F4000378
:1037E000002B1BD1124B5B68114A43F4000353605A
:1037F0003B681B68102B11D10E4B1B680E4AA2FBB5
:1038000003239A0C13469B0013445B00BB6002E049
:10381000BB68013BBB60BB68002BF9D17B68002211
:1038200083F84820FB7B18461437BD4680BC7047A0
:10383000002701407801002083DE1B4380B483B061
:1038400000AF786000BF0C37BD4680BC70470000F9
:1038500080B485B000AF78607B6803F00703FB603D
:103860000C4BDB68BB60BA684FF6FF031340BB60CC
:10387000FB681A02BB68134343F0BF6343F4003391
:10388000BB60044ABB68D36000BF1437BD4680BC30
:10389000704700BF00ED00E080B400AF044BDB6870
:1038A0001B0A03F007031846BD4680BC704700BFE3
:1038B00000ED00E080B483B000AF0346FB7197F9E0
:1038C0000730002B0BDBFB7903F01F02064997F949
:1038D00007305B09012000FA02F241F8232000BF03
:1038E0000C37BD4680BC704700E100E080B483B077
:1038F00000AF03463960FB7197F90730002B0ADBF4
:103900003B68DAB20C4997F907301201D2B20B4486
:1039100083F800230AE03B68DAB20849FB7903F038
:103920000F03043B1201D2B20B441A7600BF0C37CE
:10393000BD4680BC704700BF00E100E000ED00E044
:1039400080B489B000AFF860B9607A60FB6803F0BA
:103950000703FB61FB69C3F10703042B28BF0423A2
:10396000BB61FB690433062B02D9FB69033B00E012
:1039700000237B614FF0FF32BB6902FA03F3DA43A5
:10398000BB681A407B699A404FF0FF317B6901FAAE
:1039900003F3D9437B680B40134318462437BD46D5
:1039A00080BC704780B582B000AF78607B68013B17
:1039B000B3F1807F01D301230FE00A4A7B68013B0A
:1039C00053600F214FF0FF30FFF790FF054B0022AF
:1039D0009A60044B07221A60002318460837BD4638
:1039E00080BD00BF10E000E080B582B000AF78601D
:1039F0007868FFF72DFF00BF0837BD4680BD80B552
:103A000086B000AF0346B9607A60FB7300237B6128
:103A1000FFF742FF78617A68B9687869FFF790FF2D
:103A2000024697F90F3011461846FFF75FFF00BFB7
:103A30001837BD4680BD80B582B000AF0346FB712C
:103A400097F907301846FFF735FF00BF0837BD4626
:103A500080BD80B582B000AF78607868FFF7A2FFC4
:103A6000034618460837BD4680BD80B485B000AF18
:103A700078600023FB737B6893F82130DBB2022B64
:103A800008D07B6804229A637B68002283F8202098
:103A9000012322E07B681B681A687B681B6822F0A0
:103AA0000E021A607B681B681A687B681B6822F02C
:103AB00001021A607B681B6C03F01C027B68DB6BE5
:103AC000012101FA02F25A607B68012283F8212069
:103AD0007B68002283F82020FB7B18461437BD4604
:103AE00080BC704780B584B000AF78600023FB7362
:103AF0007B6893F82130DBB2022B05D07B6804226F
:103B00009A630123FB7329E07B681B681A687B6852
:103B10001B6822F00E021A607B681B681A687B68BB
:103B20001B6822F001021A607B681B6C03F01C0208
:103B30007B68DB6B012101FA02F25A607B6801228B
:103B400083F821207B68002283F820207B685B6B50
:103B5000002B03D07B685B6B78689847FB7B18462B
:103B60001037BD4680BD80B483B000AF78607B68FD
:103B700093F82130DBB218460C37BD4680BC704745
:103B800080B487B000AF7860396000237B61002388
:103B9000FB6000233B6154E13B681A6801217B69AB
:103BA00001FA03F31340FB60FB68002B00F0468131
:103BB0003B685B6803F00303012B05D03B685B683F
:103BC00003F00303022B30D17B689B683B617B6968
:103BD0005B00032202FA03F3DB433A6913403B61C3
:103BE0003B68DA687B695B0002FA03F33A691343C6
:103BF0003B617B683A699A607B685B683B61012244
:103C00007B6902FA03F3DB433A6913403B613B688B
:103C10005B681B0903F001027B6902FA03F33A694E
:103C200013433B617B683A695A603B685B6803F009
:103C30000303032B17D07B68DB683B617B695B0068
:103C4000032202FA03F3DB433A6913403B613B680A
:103C50009A687B695B0002FA03F33A6913433B619C
:103C60007B683A69DA603B685B6803F00303022B08
:103C700023D17B69DA087B68083253F822303B6134
:103C80007B6903F007039B000F2202FA03F3DB4377
:103C90003A6913403B613B681A697B6903F007038B
:103CA0009B0002FA03F33A6913433B617B69DA082C
:103CB0007B680832396943F822107B681B683B61D6
:103CC0007B695B00032202FA03F3DB433A6913408A
:103CD0003B613B685B6803F003027B695B0002FAAF
:103CE00003F33A6913433B617B683A691A603B68A6
:103CF0005B6803F44033002B00F0A080584B1B6A34
:103D0000574A43F001031362554B1B6A03F001034A
:103D1000BB60BB68534A7B699B08023352F823306F
:103D20003B617B6903F003039B000F2202FA03F35C
:103D3000DB433A6913403B617B684B4A934219D09D
:103D40007B684A4A934213D07B68494A93420DD01C
:103D50007B68484A934207D07B68474A934201D127
:103D6000042308E0052306E0032304E0022302E025
:103D7000012300E000237A6902F0030292009340DD
:103D80003A6913433B6137497B699B0802333A69BF
:103D900041F82320394B9B683B61FB68DB433A6960
:103DA00013403B613B685B6803F48013002B03D036
:103DB0003A69FB6813433B61304A3B6993602F4B80
:103DC000DB683B61FB68DB433A6913403B613B685E
:103DD0005B6803F40013002B03D03A69FB681343BC
:103DE0003B61264A3B69D360244B5B683B61FB68BF
:103DF000DB433A6913403B613B685B6803F4003383
:103E0000002B03D03A69FB6813433B611B4A3B69B3
:103E100053601A4B1B683B61FB68DB433A691340F4
:103E20003B613B685B6803F48033002B03D03A6945
:103E3000FB6813433B61114A3B6913607B690133A3
:103E40007B613B681A687B6922FA03F3002B7FF4DD
:103E5000A3AE00BF00BF1C37BD4680BC704700BF8B
:103E6000003802400000014000000240000402400F
:103E700000080240000C0240001002400004014013
:103E800080B483B000AF78600B467B8013467B70B4
:103E90007B78002B03D07A887B689A6103E07B886B
:103EA0001A047B689A6100BF0C37BD4680BC70471E
:103EB00080B485B000AF78600B467B807B685B691F
:103EC000FB607A88FB6813401A04FB68D9437B883F
:103ED0000B401A437B689A6100BF1437BD4680BC13
:103EE0007047000080B584B000AF78607B68002B1D
:103EF00001D101232BE17B6893F83D30DBB2002B2D
:103F000006D17B68002283F83C207868FEF700FE2B
:103F10007B68242283F83D207B681B681A687B68D5
:103F20001B6822F001021A607B681B681A687B68B4
:103F30001B6842F400421A607B681B681A687B6841
:103F40001B6822F400421A6003F0D0F9F8607B6825
:103F50005B68814A934207D8FB68804A934294BFCA
:103F600001230023DBB206E0FB687D4A934294BF45
:103F700001230023DBB2002B01D00123E7E0FB6823
:103F8000784AA2FB03239B0CBB607B681B685B68C1
:103F900023F03F017B681B68BA680A435A607B685C
:103FA0001B681B6A23F03F017B685B686A4A934287
:103FB00002D8BB68013309E0BB684FF4967202FB7C
:103FC00003F3694AA2FB03239B0901337A68126851
:103FD0000B4313627B681B68DB6923F44F4222F0BA
:103FE000FF027B685B685C498B4219D8FB68591EED
:103FF0007B685B685B00B1FBF3F3591C40F6FC7314
:104000000B40002B0AD0FB68591E7B685B685B0085
:10401000B1FBF3F30133C3F30B0351E004234FE08F
:104020007B689B68002B11D1FB68581E7B68596820
:104030000B465B000B44B0FBF3F30133C3F30B03FC
:10404000002B0CBF01230023DBB212E0FB68581EDB
:104050007B6859680B469B000B4499000B44B0FBEE
:10406000F3F30133C3F30B03002B0CBF0123002335
:10407000DBB2002B01D0012322E07B689B68002B80
:104080000ED1FB68581E7B6859680B465B000B44D9
:10409000B0FBF3F30133C3F30B0343F400430FE02E
:1040A000FB68581E7B6859680B469B000B449900BF
:1040B0000B44B0FBF3F30133C3F30B0343F440436E
:1040C000796809681343CB617B681B681B6823F020
:1040D000C0017B68DA697B681B6A1A437B681B68CE
:1040E0000A431A607B681B689B6823F4034323F030
:1040F000FF037A6811697A68D26811437A68126896
:104100000B4393607B681B68DB6823F0FF017B68CF
:104110005A697B689B691A437B681B680A43DA60AB
:104120007B681B681A687B681B6842F001021A6092
:104130007B6800221A647B68202283F83D207B681C
:1041400000221A637B68002283F83E200023184671
:104150001037BD4680BD00BFA08601007F841E00D1
:10416000FF083D0083DE1B43D34D621080B483B053
:1041700000AF78607B681B685B6903F08003802B6D
:1041800003D17B681B6800221A6100BF0C37BD4653
:1041900080BC704780B588B002AFF8600846114611
:1041A0001A4603467B810B463B811346FB80FEF794
:1041B00065FF7861FB6893F83D30DBB2202B40F05F
:1041C000D9807B690093192301226D49F86802F0B8
:1041D000DFF80346002B01D00223CCE0FB6893F804
:1041E0003C30012B01D10223C5E0FB68012283F89A
:1041F0003C20FB681B681B6803F00103012B07D000
:10420000FB681B681A68FB681B6842F001021A60B1
:10421000FB681B681A68FB681B6822F400621A605E
:10422000FB68212283F83D20FB68402283F83E2072
:10423000FB6800221A64FB683A6A5A62FB68BA8C0F
:104240005A85FB685B8D9AB2FB681A85FB684D4AFC
:10425000DA62F8883A8979897B690193BB6A0093AD
:104260000346F86801F06EFE0346002B52D001238E
:1042700081E07A69B96AF86802F0A4F90346002B74
:104280000DD0FB681B6C042B07D1FB681B681A68F8
:10429000FB681B6842F400721A6001236BE0FB6844
:1042A0005B6A1A78FB681B681A61FB685B6A5A1CB8
:1042B000FB685A62FB681B8D013B9AB2FB681A854A
:1042C000FB685B8D9BB2013B9AB2FB685A85FB6829
:1042D0001B685B6903F00403042B1BD1FB681B8D77
:1042E000002B17D0FB685B6A1A78FB681B681A61A1
:1042F000FB685B6A5A1CFB685A62FB681B8D013BBA
:104300009AB2FB681A85FB685B8D9BB2013B9AB23F
:10431000FB685A85FB681B8D002BAAD17A69B96AA4
:10432000F86802F097F90346002B0DD0FB681B6C70
:10433000042B07D1FB681B681A68FB681B6842F4F2
:1043400000721A60012316E0FB681B681A68FB689C
:104350001B6842F400721A60FB68202283F83D203B
:10436000FB68002283F83E20FB68002283F83C2093
:10437000002300E0022318461837BD4680BD00BF69
:10438000020010000000FFFF80B58CB002AFF860A3
:10439000084611461A4603467B810B463B8113466D
:1043A000FB80FEF76BFE7862FB6893F83D30DBB272
:1043B000202B40F008827B6A0093192301227B495D
:1043C000F86801F0E5FF0346002B01D00223FBE172
:1043D000FB6893F83C30012B01D10223F4E1FB6828
:1043E000012283F83C20FB681B681B6803F0010373
:1043F000012B07D0FB681B681A68FB681B6842F03A
:1044000001021A60FB681B681A68FB681B6822F4CB
:1044100000621A60FB68222283F83D20FB6840227C
:1044200083F83E20FB6800221A64FB683A6B5A62EC
:10443000FB68BA8E5A85FB685B8D9AB2FB681A8559
:10444000FB685B4ADA62F8883A8979897B6A01936A
:10445000BB6B00930346F86801F00AFE0346002B8D
:1044600001D00123B0E1FB681B8D002B13D1002389
:104470003B62FB681B685B693B62FB681B689B696E
:104480003B623B6AFB681B681A68FB681B6842F466
:1044900000721A6084E1FB681B8D012B1BD1FB6845
:1044A0001B681A68FB681B6822F480621A6000238C
:1044B000FB61FB681B685B69FB61FB681B689B69B0
:1044C000FB61FB69FB681B681A68FB681B6842F4A8
:1044D00000721A6064E1FB681B8D022B1BD1FB6824
:1044E0001B681A68FB681B6822F480621A60FB680C
:1044F0001B681A68FB681B6842F400621A6000239C
:10450000BB61FB681B685B69BB61FB681B689B69DF
:10451000BB61BB6944E100237B61FB681B685B698D
:104520007B61FB681B689B697B617B6938E1FB6889
:104530001B8D032B00F2F180FB681B8D012B23D117
:104540007A6AB96BF86802F0FFF80346002B01D0D5
:10455000012339E1FB681B681A69FB685B6AD2B208
:104560001A70FB685B6A5A1CFB685A62FB681B8DF9
:10457000013B9AB2FB681A85FB685B8D9BB2013BDD
:104580009AB2FB685A850BE1FB681B8D022B4ED15A
:104590007B6A0093BB6B00220649F86801F0F8FEC5
:1045A0000346002B08D001230EE100BF02001000DB
:1045B0000000FFFF04000100FB681B681A68FB682D
:1045C0001B6842F400721A60FB681B681A69FB687A
:1045D0005B6AD2B21A70FB685B6A5A1CFB685A624B
:1045E000FB681B8D013B9AB2FB681A85FB685B8DEB
:1045F0009BB2013B9AB2FB685A85FB681B681A693B
:10460000FB685B6AD2B21A70FB685B6A5A1CFB6873
:104610005A62FB681B8D013B9AB2FB681A85FB68E6
:104620005B8D9BB2013B9AB2FB685A85B8E07B6A0E
:104630000093BB6B00226649F86801F0A9FE0346AF
:10464000002B01D00123BFE0FB681B681A68FB68E0
:104650001B6822F480621A60FB681B681A69FB6899
:104660005B6AD2B21A70FB685B6A5A1CFB685A62BA
:10467000FB681B8D013B9AB2FB681A85FB685B8D5A
:104680009BB2013B9AB2FB685A857B6A0093BB6B75
:1046900000224F49F86801F07BFE0346002B01D051
:1046A000012391E0FB681B681A68FB681B6842F4F1
:1046B00000721A60FB681B681A69FB685B6AD2B2F9
:1046C0001A70FB685B6A5A1CFB685A62FB681B8D98
:1046D000013B9AB2FB681A85FB685B8D9BB2013B7C
:1046E0009AB2FB685A85FB681B681A69FB685B6AAB
:1046F000D2B21A70FB685B6A5A1CFB685A62FB688C
:104700001B8D013B9AB2FB681A85FB685B8D9BB2DF
:10471000013B9AB2FB685A8542E07A6AB96BF86845
:1047200002F012F80346002B01D001234CE0FB6895
:104730001B681A69FB685B6AD2B21A70FB685B6A15
:104740005A1CFB685A62FB681B8D013B9AB2FB68DE
:104750001A85FB685B8D9BB2013B9AB2FB685A8558
:10476000FB681B685B6903F00403042B18D1FB682A
:104770001B681A69FB685B6AD2B21A70FB685B6AD5
:104780005A1CFB685A62FB681B8D013B9AB2FB689E
:104790001A85FB685B8D9BB2013B9AB2FB685A8518
:1047A000FB681B8D002B7FF4C2AEFB68202283F8D0
:1047B0003D20FB68002283F83E20FB68002283F83E
:1047C0003C20002300E0022318462837BD4680BD68
:1047D0000400010080B588B000AF78600023BB61A1
:1047E0007B681B685B687B617B68DB6A3B617B681D
:1047F00093F83E30FB737B6893F83D30BB73FB7BD3
:10480000102B03D0FB7B402B40F0B1807B681B68F2
:104810009B69BB617B681B685B69FB61FB6903F09B
:104820000103002B0DD13B69B3F52A0F03D03B697F
:10483000B3F12A4F01D1012300E00023012B00F046
:104840001481FB6903F00103002B0BD07B6903F497
:104850000073002B06D0786802F001F8786800F049
:1048600058FD83E0FB6903F00803002B08D07B6947
:1048700003F40073002B03D0786800F0CFFD75E0DF
:10488000FB6903F00203002B08D07B6903F400737B
:10489000002B03D0786800F0EAFD67E0BB6903F005
:1048A0000403002B36D07B681B685B6803F400634D
:1048B000B3F5006F00F0DB80FB6903F08003002B91
:1048C0000DD07B6903F48063002B08D0FB6903F0F3
:1048D0000403002B03D1786800F0CCF946E0FB69B3
:1048E00003F00403002B00F0C2807B6903F4007323
:1048F000002B00F0BC80BB7B212B03D1786800F03B
:1049000055FAB4E0FB7B402B40F0B180786800F0B2
:10491000C3FAACE07B681B685B6803F40063B3F523
:10492000006F00F0A480FB6903F04003002B0DD062
:104930007B6903F48063002B08D0FB6903F0040358
:10494000002B03D1786800F03FFB0FE0FB6903F018
:104950000403002B00F08B807B6903F40073002BB1
:1049600000F08580786800F0EAFB80E07FE07B68FB
:104970001B6C002B04D07B681B685B69FB6107E044
:104980007B681B689B69BB617B681B685B69FB611B
:10499000FB6903F00203002B11D07B6903F4007361
:1049A000002B0CD07B681B6C002B03D07B681B6832
:1049B0009B69BB61B969786800F0A5FF5AE0FB69A3
:1049C00003F01003002B08D07B6903F40073002B65
:1049D00003D0786800F0E0FF4CE0BB7B212B02D0D5
:1049E000BB7B292B20D1FB6903F08003002B0DD06A
:1049F0007B6903F48063002B08D0FB6903F0040398
:104A0000002B03D1786800F0C2FE32E0FB6903F0AE
:104A10000403002B2DD07B6903F40073002B28D0F6
:104A2000786800F0F1FE24E0FB6903F04003002BFE
:104A30000DD07B6903F48063002B08D0FB6903F081
:104A40000403002B03D1786800F0FEFE12E0FB693E
:104A500003F00403002B0DD07B6903F40073002BDB
:104A600008D0786800F02EFF04E000BF02E000BF2D
:104A700000E000BF2037BD4680BD80B58AB000AFE2
:104A800078607B681B685B693B627B681B685B685E
:104A9000FB6100237B627B6893F83E30FB763B6AC8
:104AA00003F48073002B0DD0FB6903F48073002B9B
:104AB00008D07B6A43F001037B627B681B686FF45C
:104AC00080725A613B6A03F40073002B0DD0FB69BE
:104AD00003F48073002B08D07B6A43F002037B62EF
:104AE0007B681B686FF400725A613B6A03F4806351
:104AF000002B3ED0FB6903F48073002B39D0FB7E82
:104B0000BB767B685B8D9BB27B617B6893F83D30A5
:104B1000FB747B681B6BFB60BB7E202B12D17B6917
:104B2000002B0FD1FB7C212B08D0FB7C292B05D03F
:104B3000FB7C282B06D1FB68212B03D1786801F080
:104B40005BF816E07B681B686FF480625A617B6AD1
:104B500043F004037B62FB7E102B02D0FB7E402BD4
:104B600007D17B681B681A687B681B6842F4007277
:104B70001A603B6A03F40063002B0DD0FB6903F459
:104B80008073002B08D07B6A43F008037B627B684C
:104B90001B686FF400625A617B6A002B08D07B6847
:104BA0001A6C7B6A1A437B681A64786801F098F87B
:104BB00000BF2837BD4680BD80B483B000AF7860A9
:104BC00000BF0C37BD4680BC704780B483B000AFD7
:104BD000786000BF0C37BD4680BC704780B483B09E
:104BE00000AF786000BF0C37BD4680BC704780B412
:104BF00083B000AF786000BF0C37BD4680BC704703
:104C000080B483B000AF78600B46FB7013463B80E6
:104C100000BF0C37BD4680BC704780B483B000AF86
:104C2000786000BF0C37BD4680BC704780B483B04D
:104C300000AF786000BF0C37BD4680BC704780B4C1
:104C400083B000AF786000BF0C37BD4680BC7047B2
:104C500080B483B000AF786000BF0C37BD4680BC25
:104C6000704780B483B000AF786000BF0C37BD469A
:104C700080BC704780B584B000AF78607B6893F8E3
:104C80003D30FB737B6893F83E30BB737B68DB6A17
:104C9000BB607B681B8D002B50D1FB7B212B4DD142
:104CA000BB68082B1DD0BB68202B1AD0BB6813F53E
:104CB000803F16D07B681B685A687B681B6822F4AB
:104CC000E0625A607B6811221A637B68002283F8D5
:104CD0003E207B68202283F83D207868FFF76CFF38
:104CE00060E07B681B685A687B681B6822F4E0629E
:104CF0005A607B681B681A687B681B6842F4007204
:104D00001A607B6800221A637B68202283F83D20AA
:104D10007B6893F83E30DBB2402B07D17B680022E2
:104D200083F83E207868FFF781FF3BE07B68002234
:104D300083F83E207868FFF73FFF33E0FB7B212BB1
:104D400005D0BB7B402B2DD1FB7B222B2AD17B684E
:104D50005B8D9BB2002B08D17B681B685A687B680F
:104D60001B6822F480625A601CE07B6893F83E3036
:104D7000DBB2402B03D1786800F08EF812E07B683C
:104D80005B6A1A787B681B681A617B685B6A5A1CCD
:104D90007B685A627B685B8D9BB2013B9AB27B68F1
:104DA0005A85FFE700BF1037BD4680BD80B584B08F
:104DB00000AF78607B68DB6AFB607B6893F83D300E
:104DC000DBB2212B64D17B685B8D9BB2002B12D0B0
:104DD0007B685B6A1A787B681B681A617B685B6A10
:104DE0005A1C7B685A627B685B8D9BB2013B9AB20E
:104DF0007B685A854CE0FB68082B1DD0FB68202B94
:104E00001AD0FB6813F5803F16D07B681B685A6880
:104E10007B681B6822F4E0625A607B6811221A6387
:104E20007B68002283F83E207B68202283F83D20A7
:104E30007868FFF7C1FE2BE07B681B685A687B68C7
:104E40001B6822F4E0625A607B681B681A687B6802
:104E50001B6842F400721A607B6800221A637B6848
:104E6000202283F83D207B6893F83E30DBB2402B54
:104E700007D17B68002283F83E207868FFF7D6FED2
:104E800006E07B68002283F83E207868FFF794FEF6
:104E900000BF1037BD4680BD80B584B000AF7860DC
:104EA0007B6893F83D30FB737B681B6D002B1DD135
:104EB0007B68DB6C012B0BD17B689B6CDAB27B6867
:104EC0001B681A617B681B6D9A1C7B681A6577E00A
:104ED0007B689B6C9BB21B12DAB27B681B681A6101
:104EE0007B681B6D5A1C7B681A6569E07B681B6DCB
:104EF000012B0BD17B689B6CDAB27B681B681A6153
:104F00007B681B6D5A1C7B681A6559E07B681B6DBA
:104F1000022B52D1FB7B222B0DD17B681B681A68B8
:104F20007B681B6842F480721A607B681B6D5A1C98
:104F30007B681A6544E07B685B8D9BB2002B15D0C3
:104F4000FB7B212B12D17B685B6A1A787B681B681C
:104F50001A617B685B6A5A1C7B685A627B685B8D4E
:104F60009BB2013B9AB27B685A8529E07B685B8DD6
:104F70009BB2002B24D1FB7B212B21D17B681B68AA
:104F80005A687B681B6822F4E0625A607B681B6881
:104F90001A687B681B6842F400721A607B68002202
:104FA0001A637B68202283F83D207B68002283F807
:104FB0003E207868FFF73AFE02E07868FFF7D6F8FF
:104FC00000BF1037BD4680BD80B584B000AF7860AB
:104FD0007B6893F83D30DBB2222B40F0AC807B68DD
:104FE0005B8D9BB2FB60FB68032B21D97B681B6840
:104FF0001A697B685B6AD2B21A707B685B6A5A1C5A
:105000007B685A627B685B8D9BB2013B9AB27B687E
:105010005A857B685B8D9BB2032B40F08C807B684C
:105020001B685A687B681B6822F480625A6082E0C1
:105030007B68DB6A022B75D0FB68012B02D0FB6812
:10504000002B6FD1786801F04DFB0346002B42D155
:105050007B681B681A687B681B6822F480621A6090
:105060007B681B685A687B681B6822F4E0625A60A0
:105070007B681B681A697B685B6AD2B21A707B68AE
:105080005B6A5A1C7B685A627B685B8D9BB2013BF2
:105090009AB27B685A857B68202283F83D207B6822
:1050A00093F83E30DBB2402B0AD17B68002283F8B4
:1050B0003E207B6800221A637868FFF7C0FD3AE063
:1050C0007B68002283F83E207B6812221A6378688E
:1050D000FFF77BFD2FE07B681B685A687B681B68C5
:1050E00022F4E0625A607B681B681A697B685B6A1D
:1050F000D2B21A707B685B6A5A1C7B685A627B6802
:105100005B8D9BB2013B9AB27B685A857B682022FB
:1051100083F83D207B68002283F83E207868FFF703
:1051200097FD08E07B681B685A687B681B6822F45F
:1051300080625A60FFE700BF1037BD4680BD80B572
:1051400084B000AF78607B68DB6AFB607B685B8D56
:105150009BB2042B1BD17B681B685A687B681B6859
:1051600022F480625A607B681B681A697B685B6AFC
:10517000D2B21A707B685B6A5A1C7B685A627B6881
:105180005B8D9BB2013B9AB27B685A85BDE07B6820
:105190005B8D9BB2032B29D17B681B685A687B68A7
:1051A0001B6822F480625A60FB68042B0AD0FB68FB
:1051B000022B07D07B681B681A687B681B6822F487
:1051C00080621A607B681B681A697B685B6AD2B26E
:1051D0001A707B685B6A5A1C7B685A627B685B8DBD
:1051E0009BB2013B9AB27B685A858EE07B685B8DEF
:1051F0009BB2022B76D1FB68012B02D0FB68102BEF
:1052000008D17B681B681A687B681B6822F480627F
:105210001A6019E0FB68042B02D0FB68022B08D14E
:105220007B681B681A687B681B6842F480621A609E
:105230000AE0FB68102B07D07B681B681A687B6844
:105240001B6842F400721A607B681B681A697B68ED
:105250005B6AD2B21A707B685B6A5A1C7B685A62BE
:105260007B685B8D9BB2013B9AB27B685A857B68F9
:105270001B681A697B685B6AD2B21A707B685B6ACA
:105280005A1C7B685A627B685B8D9BB2013B9AB269
:105290007B685A857B681B685A687B681B6822F4A8
:1052A00040725A607B68202283F83D207B6893F827
:1052B0003E30DBB2402B0AD17B68002283F83E20CF
:1052C0007B6800221A637868FFF7B9FC1DE07B68F1
:1052D000002283F83E207B6812221A637868FFF769
:1052E00074FC12E07B681B681A697B685B6AD2B247
:1052F0001A707B685B6A5A1C7B685A627B685B8D9C
:105300009BB2013B9AB27B685A8500BF1037BD46FD
:1053100080BD80B483B000AF78607B6893F83E3086
:10532000DBB2402B17D17B681B6D002B09D17B684A
:105330005B6CDBB21A467B681B6802F0FE021A61E6
:1053400067E07B685B6CDBB243F00103DAB27B6839
:105350001B681A615DE07B681B69B3F5804F33D130
:105360007B6893F83D30DBB2212B09D17B685B6C05
:10537000DBB21A467B681B6802F0FE021A6108E085
:105380007B685B6CDBB243F00103DAB27B681B68BD
:105390001A617B685B6B002B04D07B685B6B9B6A3C
:1053A000002B08D17B689B6B002B32D07B689B6BFA
:1053B0009B6A002B2DD07B681B685A687B681B6832
:1053C00042F400625A6024E07B681B6D002B0ED112
:1053D0007B685B6C9BB2DB11DBB203F00603DBB2D4
:1053E00063F00F03DAB27B681B681A6111E07B6817
:1053F0001B6D012B0DD17B685B6C9BB2DB11DBB2AB
:1054000003F00603DBB263F00E03DAB27B681B68BD
:105410001A6100BF0C37BD4680BC704780B483B0B2
:1054200000AF78607B685B6CDAB27B681B681A61DE
:105430007B685B6B002B04D07B685B6B9B6A002BEB
:1054400008D17B689B6B002B0CD07B689B6B9B6AA5
:10545000002B07D07B681B685A687B681B6842F486
:1054600000625A6000BF0C37BD4680BC704780B4F4
:1054700091B000AF78607B6893F83E3087F83F309A
:105480007B68DB6ABB637B681B6B7B637B6893F821
:105490003D30DBB2222B40F069817B681B6D002B15
:1054A0000FD197F83F30402B0BD100233B637B6833
:1054B0001B685B693B637B681B689B693B633B6B59
:1054C00060E17B681B6D002B1DD17B681B69B3F508
:1054D000404F18D10023FB627B681B685B69FB624D
:1054E0007B681B689B69FB62FB6A7B681B681A68A8
:1054F0007B681B6842F480721A607B681B6D5A1CC3
:105500007B681A653EE17B685B8D9BB2002B13D1F3
:105510000023BB627B681B685B69BB627B681B689E
:105520009B69BB62BB6A7B681B681A687B681B68E7
:1055300042F400721A6015E17B685B8D9BB2012B0F
:1055400040F08A80BB6B13F5803F37D17B681B68C6
:105550001A687B681B6822F480621A607B681B688B
:105560005B6803F40063B3F5006F13D17B681B68BD
:105570001A687B681B6822F480621A6000237B62D1
:105580007B681B685B697B627B681B689B697B62CD
:105590007B6AE7E000233B627B681B685B693B62D8
:1055A0007B681B689B693B623B6A7B681B681A6867
:1055B0007B681B6842F400721A60D3E0BB6B082B57
:1055C0002ED0BB6B202B2BD07B6B122B02D1BB6B55
:1055D000012B25D1BB6B042B0ED0BB6B022B0BD048
:1055E000BB6B102B08D07B681B681A687B681B6834
:1055F00022F480621A6007E07B681B681A687B6887
:105600001B6842F480621A600023FB617B681B68A0
:105610005B69FB617B681B689B69FB61FB69A1E0BF
:105620007B681B681A687B681B6822F480621A60BA
:105630000023BB617B681B685B69BB617B681B687F
:105640009B69BB61BB697B681B681A687B681B68C8
:1056500042F400721A6085E07B685B8D9BB2022B7E
:105660004DD1BB6B042B16D0BB6B022B13D0BB6B85
:10567000102B10D07B681B681A687B681B6822F4AB
:1056800080621A607B681B681A687B681B6842F43A
:1056900000621A6007E07B681B681A687B681B68F9
:1056A00042F480621A607B681B685B6803F40063E5
:1056B000B3F5006F17D1BB6B13F5803F0BD0BB6BFD
:1056C000012B08D0BB6B082B05D0BB6B102B02D075
:1056D000BB6B202B07D17B681B685A687B681B68F3
:1056E00042F480525A6000237B617B681B685B69CF
:1056F0007B617B681B689B697B617B6932E07B68AF
:105700001B681A687B681B6842F480621A607B68B9
:105710001B685B6803F40063B3F5006F17D1BB6BC4
:1057200013F5803F0BD0BB6B012B08D0BB6B082B54
:1057300005D0BB6B102B02D0BB6B202B07D17B6835
:105740001B685A687B681B6842F480525A600023C9
:105750003B617B681B685B693B617B681B689B697D
:105760003B613B697B6800221A650BE00023FB600C
:105770007B681B685B69FB607B681B689B69FB60DF
:10578000FB68FFE700BF4437BD4680BC704780B56B
:1057900084B000AF78607B6893F83D30FB737B6822
:1057A0005B8D9BB2002B2BD07B685B6A1A787B6881
:1057B0001B681A617B685B6A5A1C7B685A627B684B
:1057C0005B8D9BB2013B9AB27B685A857B685B8D8F
:1057D0009BB2002B14D1FB7B292B11D17B681B685A
:1057E0005A687B681B6822F480625A607B682122B9
:1057F0001A637B68282283F83D207868FFF7EEF96A
:1058000000BF1037BD4680BD80B483B000AF786064
:105810007B685B8D9BB2002B11D07B685B6A1A782A
:105820007B681B681A617B685B6A5A1C7B685A62DA
:105830007B685B8D9BB2013B9AB27B685A8500BF47
:105840000C37BD4680BC704780B584B000AF78602F
:105850007B6893F83D30FB737B685B8D9BB2002BBC
:105860002CD07B681B681A697B685B6AD2B21A709D
:105870007B685B6A5A1C7B685A627B685B8D9BB253
:10588000013B9AB27B685A857B685B8D9BB2002B8B
:1058900014D1FB7B2A2B11D17B681B685A687B686B
:1058A0001B6822F480625A607B6822221A637B683C
:1058B000282283F83D207868FFF799F900BF103758
:1058C000BD4680BD80B483B000AF78607B685B8DDF
:1058D0009BB2002B12D07B681B681A697B685B6ADD
:1058E000D2B21A707B685B6A5A1C7B685A627B680A
:1058F0005B8D9BB2013B9AB27B685A8500BF0C3727
:10590000BD4680BC704780B584B000AF7860396018
:105910000023FB737B6893F83D30DBB203F0280370
:10592000282B25D17B681B685A687B681B6822F48A
:1059300080625A603B6803F00403002B01D101230D
:10594000FB733B6803F08003002B03D17B68DB68AB
:10595000BB8102E07B689B69BB817B68002283F886
:105960003C20BA89FB7B19467868FFF749F90EE0BD
:105970000023BB607B681B685B69BB607B681B683E
:105980009B69BB60BB687B68002283F83C2000BF3A
:105990001037BD4680BD000080B584B000AF786090
:1059A0007B6893F83D30FB737B681B685A687B68A3
:1059B0001B6822F4E0625A600023BB607B681B68AE
:1059C0005B69BB607B681B681A687B681B6842F078
:1059D00001021A60BB687B681B681A687B681B68D9
:1059E00022F480621A607B681B685B6803F40063C2
:1059F000B3F5006F72D1FB7B222B02D0FB7B2A2BED
:105A000035D17B689B6B1B685B689AB27B685A8553
:105A10007B685B8D9BB2002B05D07B681B6C43F0D1
:105A200004027B681A647B681B685A687B681B6881
:105A300022F400625A607B689B6B1846FEF793F86D
:105A40000346012B49D07B689B6B694A5A637B688C
:105A50009B6B1846FEF746F80346002B3DD07B684B
:105A60009B6B5B6B7A68926B1046984735E07B685E
:105A70005B6B1B685B689AB27B685A857B685B8D41
:105A80009BB2002B05D07B681B6C43F004027B6843
:105A90001A647B681B685A687B681B6822F4006282
:105AA0005A607B685B6B1846FEF75DF80346012B76
:105AB00014D07B685B6B4E4A5A637B685B6B1846FD
:105AC000FEF710F80346002B08D07B685B6B5B6B1E
:105AD0007A68526B1046984700E000BF7B685B8D88
